{
	"contracts/exampleTryCatch.sol": {
		"ErrorHandling": {
			"abi": [
				{
					"anonymous": false,
					"inputs": [
						{
							"indexed": false,
							"internalType": "string",
							"name": "reason",
							"type": "string"
						}
					],
					"name": "ErrorLogging",
					"type": "event"
				},
				{
					"inputs": [],
					"name": "catchError",
					"outputs": [],
					"stateMutability": "nonpayable",
					"type": "function"
				}
			],
			"devdoc": {
				"kind": "dev",
				"methods": {},
				"version": 1
			},
			"evm": {
				"assembly": "    /* \"contracts/exampleTryCatch.sol\":176:514  contract ErrorHandling {... */\n  mstore(0x40, 0x80)\n  callvalue\n  dup1\n  iszero\n  tag_1\n  jumpi\n  revert(0x00, 0x00)\ntag_1:\n  pop\n  dataSize(sub_0)\n  dup1\n  dataOffset(sub_0)\n  0x00\n  codecopy\n  0x00\n  return\nstop\n\nsub_0: assembly {\n        /* \"contracts/exampleTryCatch.sol\":176:514  contract ErrorHandling {... */\n      mstore(0x40, 0x80)\n      callvalue\n      dup1\n      iszero\n      tag_1\n      jumpi\n      revert(0x00, 0x00)\n    tag_1:\n      pop\n      jumpi(tag_2, lt(calldatasize, 0x04))\n      shr(0xe0, calldataload(0x00))\n      dup1\n      0x8b188516\n      eq\n      tag_3\n      jumpi\n    tag_2:\n      revert(0x00, 0x00)\n        /* \"contracts/exampleTryCatch.sol\":246:511  function catchError() public {... */\n    tag_3:\n      tag_4\n      tag_5\n      jump\t// in\n    tag_4:\n      stop\n    tag_5:\n        /* \"contracts/exampleTryCatch.sol\":286:300  WillThrow will */\n      0x00\n        /* \"contracts/exampleTryCatch.sol\":303:318  new WillThrow() */\n      mload(0x40)\n      tag_7\n      swap1\n      tag_8\n      jump\t// in\n    tag_7:\n      mload(0x40)\n      dup1\n      swap2\n      sub\n      swap1\n      0x00\n      create\n      dup1\n      iszero\n      dup1\n      iszero\n      tag_9\n      jumpi\n      returndatacopy(0x00, 0x00, returndatasize)\n      revert(0x00, returndatasize)\n    tag_9:\n      pop\n        /* \"contracts/exampleTryCatch.sol\":286:318  WillThrow will = new WillThrow() */\n      swap1\n      pop\n        /* \"contracts/exampleTryCatch.sol\":333:337  will */\n      dup1\n        /* \"contracts/exampleTryCatch.sol\":333:347  will.aFunction */\n      0xffffffffffffffffffffffffffffffffffffffff\n      and\n      0x39c117a4\n        /* \"contracts/exampleTryCatch.sol\":333:349  will.aFunction() */\n      mload(0x40)\n      dup2\n      0xffffffff\n      and\n      0xe0\n      shl\n      dup2\n      mstore\n      0x04\n      add\n      0x00\n      mload(0x40)\n      dup1\n      dup4\n      sub\n      dup2\n      dup7\n      dup1\n      extcodesize\n      iszero\n      dup1\n      iszero\n      tag_10\n      jumpi\n      revert(0x00, 0x00)\n    tag_10:\n      pop\n      gas\n      staticcall\n      swap3\n      pop\n      pop\n      pop\n      dup1\n      iszero\n      tag_11\n      jumpi\n      pop\n      0x01\n    tag_11:\n        /* \"contracts/exampleTryCatch.sol\":329:504  try will.aFunction() {... */\n      tag_12\n      jumpi\n      tag_16\n      tag_17\n      jump\t// in\n    tag_16:\n      dup1\n      0x08c379a0\n      sub\n      tag_15\n      jumpi\n      pop\n      tag_18\n      tag_19\n      jump\t// in\n    tag_18:\n      dup1\n      tag_20\n      jumpi\n      pop\n      jump(tag_14)\n    tag_20:\n        /* \"contracts/exampleTryCatch.sol\":472:492  ErrorLogging(reason) */\n      0xdcbe72357183be3854887085e70fd914c4c1733a94106878f48e8ba069d8fabc\n        /* \"contracts/exampleTryCatch.sol\":485:491  reason */\n      dup2\n        /* \"contracts/exampleTryCatch.sol\":472:492  ErrorLogging(reason) */\n      mload(0x40)\n      tag_21\n      swap2\n      swap1\n      tag_22\n      jump\t// in\n    tag_21:\n      mload(0x40)\n      dup1\n      swap2\n      sub\n      swap1\n      log1\n        /* \"contracts/exampleTryCatch.sol\":418:504  catch Error(string memory reason) {... */\n      pop\n        /* \"contracts/exampleTryCatch.sol\":329:504  try will.aFunction() {... */\n      jump(tag_13)\n    tag_15:\n      pop\n    tag_14:\n      returndatacopy(0x00, 0x00, returndatasize)\n      revert(0x00, returndatasize)\n    tag_13:\n      jump(tag_23)\n    tag_12:\n    tag_23:\n        /* \"contracts/exampleTryCatch.sol\":275:511  {... */\n      pop\n        /* \"contracts/exampleTryCatch.sol\":246:511  function catchError() public {... */\n      jump\t// out\n    tag_8:\n      dataSize(sub_0)\n      dup1\n      dataOffset(sub_0)\n      dup4\n      codecopy\n      add\n      swap1\n      jump\t// out\n        /* \"#utility.yul\":7:113   */\n    tag_24:\n        /* \"#utility.yul\":51:59   */\n      0x00\n        /* \"#utility.yul\":100:105   */\n      dup2\n        /* \"#utility.yul\":95:98   */\n      0xe0\n        /* \"#utility.yul\":91:106   */\n      shr\n        /* \"#utility.yul\":70:106   */\n      swap1\n      pop\n        /* \"#utility.yul\":7:113   */\n      swap2\n      swap1\n      pop\n      jump\t// out\n        /* \"#utility.yul\":119:302   */\n    tag_17:\n        /* \"#utility.yul\":154:157   */\n      0x00\n        /* \"#utility.yul\":192:193   */\n      0x03\n        /* \"#utility.yul\":174:190   */\n      returndatasize\n        /* \"#utility.yul\":171:194   */\n      gt\n        /* \"#utility.yul\":168:296   */\n      iszero\n      tag_36\n      jumpi\n        /* \"#utility.yul\":230:231   */\n      0x04\n        /* \"#utility.yul\":227:228   */\n      0x00\n        /* \"#utility.yul\":224:225   */\n      0x00\n        /* \"#utility.yul\":209:232   */\n      returndatacopy\n        /* \"#utility.yul\":252:286   */\n      tag_37\n        /* \"#utility.yul\":283:284   */\n      0x00\n        /* \"#utility.yul\":277:285   */\n      mload\n        /* \"#utility.yul\":252:286   */\n      tag_24\n      jump\t// in\n    tag_37:\n        /* \"#utility.yul\":245:286   */\n      swap1\n      pop\n        /* \"#utility.yul\":168:296   */\n    tag_36:\n        /* \"#utility.yul\":119:302   */\n      swap1\n      jump\t// out\n        /* \"#utility.yul\":308:383   */\n    tag_25:\n        /* \"#utility.yul\":341:347   */\n      0x00\n        /* \"#utility.yul\":374:376   */\n      0x40\n        /* \"#utility.yul\":368:377   */\n      mload\n        /* \"#utility.yul\":358:377   */\n      swap1\n      pop\n        /* \"#utility.yul\":308:383   */\n      swap1\n      jump\t// out\n        /* \"#utility.yul\":389:491   */\n    tag_26:\n        /* \"#utility.yul\":430:436   */\n      0x00\n        /* \"#utility.yul\":481:483   */\n      0x1f\n        /* \"#utility.yul\":477:484   */\n      not\n        /* \"#utility.yul\":472:474   */\n      0x1f\n        /* \"#utility.yul\":465:470   */\n      dup4\n        /* \"#utility.yul\":461:475   */\n      add\n        /* \"#utility.yul\":457:485   */\n      and\n        /* \"#utility.yul\":447:485   */\n      swap1\n      pop\n        /* \"#utility.yul\":389:491   */\n      swap2\n      swap1\n      pop\n      jump\t// out\n        /* \"#utility.yul\":497:677   */\n    tag_27:\n        /* \"#utility.yul\":545:622   */\n      0x4e487b7100000000000000000000000000000000000000000000000000000000\n        /* \"#utility.yul\":542:543   */\n      0x00\n        /* \"#utility.yul\":535:623   */\n      mstore\n        /* \"#utility.yul\":642:646   */\n      0x41\n        /* \"#utility.yul\":639:640   */\n      0x04\n        /* \"#utility.yul\":632:647   */\n      mstore\n        /* \"#utility.yul\":666:670   */\n      0x24\n        /* \"#utility.yul\":663:664   */\n      0x00\n        /* \"#utility.yul\":656:671   */\n      revert\n        /* \"#utility.yul\":683:964   */\n    tag_28:\n        /* \"#utility.yul\":766:793   */\n      tag_42\n        /* \"#utility.yul\":788:792   */\n      dup3\n        /* \"#utility.yul\":766:793   */\n      tag_26\n      jump\t// in\n    tag_42:\n        /* \"#utility.yul\":758:764   */\n      dup2\n        /* \"#utility.yul\":754:794   */\n      add\n        /* \"#utility.yul\":896:902   */\n      dup2\n        /* \"#utility.yul\":884:894   */\n      dup2\n        /* \"#utility.yul\":881:903   */\n      lt\n        /* \"#utility.yul\":860:878   */\n      0xffffffffffffffff\n        /* \"#utility.yul\":848:858   */\n      dup3\n        /* \"#utility.yul\":845:879   */\n      gt\n        /* \"#utility.yul\":842:904   */\n      or\n        /* \"#utility.yul\":839:927   */\n      iszero\n      tag_43\n      jumpi\n        /* \"#utility.yul\":907:925   */\n      tag_44\n      tag_27\n      jump\t// in\n    tag_44:\n        /* \"#utility.yul\":839:927   */\n    tag_43:\n        /* \"#utility.yul\":947:957   */\n      dup1\n        /* \"#utility.yul\":943:945   */\n      0x40\n        /* \"#utility.yul\":936:958   */\n      mstore\n        /* \"#utility.yul\":726:964   */\n      pop\n        /* \"#utility.yul\":683:964   */\n      pop\n      pop\n      jump\t// out\n        /* \"#utility.yul\":970:1681   */\n    tag_19:\n        /* \"#utility.yul\":1009:1012   */\n      0x00\n        /* \"#utility.yul\":1047:1051   */\n      0x44\n        /* \"#utility.yul\":1029:1045   */\n      returndatasize\n        /* \"#utility.yul\":1026:1052   */\n      lt\n        /* \"#utility.yul\":1055:1060   */\n      tag_45\n        /* \"#utility.yul\":1023:1062   */\n      jumpi\n        /* \"#utility.yul\":1084:1104   */\n      tag_47\n      tag_25\n      jump\t// in\n    tag_47:\n        /* \"#utility.yul\":1159:1160   */\n      0x04\n        /* \"#utility.yul\":1141:1157   */\n      returndatasize\n        /* \"#utility.yul\":1137:1161   */\n      sub\n        /* \"#utility.yul\":1134:1135   */\n      0x04\n        /* \"#utility.yul\":1128:1132   */\n      dup3\n        /* \"#utility.yul\":1113:1162   */\n      returndatacopy\n        /* \"#utility.yul\":1192:1196   */\n      dup1\n        /* \"#utility.yul\":1186:1197   */\n      mload\n        /* \"#utility.yul\":1291:1307   */\n      returndatasize\n        /* \"#utility.yul\":1284:1288   */\n      0x24\n        /* \"#utility.yul\":1276:1282   */\n      dup3\n        /* \"#utility.yul\":1272:1289   */\n      add\n        /* \"#utility.yul\":1269:1308   */\n      gt\n        /* \"#utility.yul\":1236:1254   */\n      0xffffffffffffffff\n        /* \"#utility.yul\":1228:1234   */\n      dup3\n        /* \"#utility.yul\":1225:1255   */\n      gt\n        /* \"#utility.yul\":1209:1322   */\n      or\n        /* \"#utility.yul\":1206:1352   */\n      iszero\n      tag_48\n      jumpi\n        /* \"#utility.yul\":1337:1342   */\n      pop\n      pop\n      jump(tag_45)\n        /* \"#utility.yul\":1206:1352   */\n    tag_48:\n        /* \"#utility.yul\":1383:1389   */\n      dup1\n        /* \"#utility.yul\":1377:1381   */\n      dup3\n        /* \"#utility.yul\":1373:1390   */\n      add\n        /* \"#utility.yul\":1419:1422   */\n      dup1\n        /* \"#utility.yul\":1413:1423   */\n      mload\n        /* \"#utility.yul\":1446:1464   */\n      0xffffffffffffffff\n        /* \"#utility.yul\":1438:1444   */\n      dup2\n        /* \"#utility.yul\":1435:1465   */\n      gt\n        /* \"#utility.yul\":1432:1475   */\n      iszero\n      tag_49\n      jumpi\n        /* \"#utility.yul\":1468:1473   */\n      pop\n      pop\n      pop\n      pop\n      jump(tag_45)\n        /* \"#utility.yul\":1432:1475   */\n    tag_49:\n        /* \"#utility.yul\":1516:1522   */\n      dup1\n        /* \"#utility.yul\":1509:1513   */\n      0x20\n        /* \"#utility.yul\":1504:1507   */\n      dup4\n        /* \"#utility.yul\":1500:1514   */\n      add\n        /* \"#utility.yul\":1496:1523   */\n      add\n        /* \"#utility.yul\":1575:1576   */\n      0x04\n        /* \"#utility.yul\":1557:1573   */\n      returndatasize\n        /* \"#utility.yul\":1553:1577   */\n      sub\n        /* \"#utility.yul\":1547:1551   */\n      dup6\n        /* \"#utility.yul\":1543:1578   */\n      add\n        /* \"#utility.yul\":1538:1541   */\n      dup2\n        /* \"#utility.yul\":1535:1579   */\n      gt\n        /* \"#utility.yul\":1532:1589   */\n      iszero\n      tag_50\n      jumpi\n        /* \"#utility.yul\":1582:1587   */\n      pop\n      pop\n      pop\n      pop\n      pop\n      jump(tag_45)\n        /* \"#utility.yul\":1532:1589   */\n    tag_50:\n        /* \"#utility.yul\":1599:1656   */\n      tag_51\n        /* \"#utility.yul\":1647:1653   */\n      dup3\n        /* \"#utility.yul\":1641:1645   */\n      0x20\n        /* \"#utility.yul\":1637:1654   */\n      add\n        /* \"#utility.yul\":1629:1635   */\n      dup6\n        /* \"#utility.yul\":1625:1655   */\n      add\n        /* \"#utility.yul\":1619:1623   */\n      dup7\n        /* \"#utility.yul\":1599:1656   */\n      tag_28\n      jump\t// in\n    tag_51:\n        /* \"#utility.yul\":1672:1675   */\n      dup3\n        /* \"#utility.yul\":1665:1675   */\n      swap6\n      pop\n        /* \"#utility.yul\":1013:1681   */\n      pop\n      pop\n      pop\n      pop\n      pop\n        /* \"#utility.yul\":970:1681   */\n    tag_45:\n      swap1\n      jump\t// out\n        /* \"#utility.yul\":1687:1786   */\n    tag_29:\n        /* \"#utility.yul\":1739:1745   */\n      0x00\n        /* \"#utility.yul\":1773:1778   */\n      dup2\n        /* \"#utility.yul\":1767:1779   */\n      mload\n        /* \"#utility.yul\":1757:1779   */\n      swap1\n      pop\n        /* \"#utility.yul\":1687:1786   */\n      swap2\n      swap1\n      pop\n      jump\t// out\n        /* \"#utility.yul\":1792:1961   */\n    tag_30:\n        /* \"#utility.yul\":1876:1887   */\n      0x00\n        /* \"#utility.yul\":1910:1916   */\n      dup3\n        /* \"#utility.yul\":1905:1908   */\n      dup3\n        /* \"#utility.yul\":1898:1917   */\n      mstore\n        /* \"#utility.yul\":1950:1954   */\n      0x20\n        /* \"#utility.yul\":1945:1948   */\n      dup3\n        /* \"#utility.yul\":1941:1955   */\n      add\n        /* \"#utility.yul\":1926:1955   */\n      swap1\n      pop\n        /* \"#utility.yul\":1792:1961   */\n      swap3\n      swap2\n      pop\n      pop\n      jump\t// out\n        /* \"#utility.yul\":1967:2106   */\n    tag_31:\n        /* \"#utility.yul\":2056:2062   */\n      dup3\n        /* \"#utility.yul\":2051:2054   */\n      dup2\n        /* \"#utility.yul\":2046:2049   */\n      dup4\n        /* \"#utility.yul\":2040:2063   */\n      mcopy\n        /* \"#utility.yul\":2097:2098   */\n      0x00\n        /* \"#utility.yul\":2088:2094   */\n      dup4\n        /* \"#utility.yul\":2083:2086   */\n      dup4\n        /* \"#utility.yul\":2079:2095   */\n      add\n        /* \"#utility.yul\":2072:2099   */\n      mstore\n        /* \"#utility.yul\":1967:2106   */\n      pop\n      pop\n      pop\n      jump\t// out\n        /* \"#utility.yul\":2112:2489   */\n    tag_32:\n        /* \"#utility.yul\":2200:2203   */\n      0x00\n        /* \"#utility.yul\":2228:2267   */\n      tag_56\n        /* \"#utility.yul\":2261:2266   */\n      dup3\n        /* \"#utility.yul\":2228:2267   */\n      tag_29\n      jump\t// in\n    tag_56:\n        /* \"#utility.yul\":2283:2354   */\n      tag_57\n        /* \"#utility.yul\":2347:2353   */\n      dup2\n        /* \"#utility.yul\":2342:2345   */\n      dup6\n        /* \"#utility.yul\":2283:2354   */\n      tag_30\n      jump\t// in\n    tag_57:\n        /* \"#utility.yul\":2276:2354   */\n      swap4\n      pop\n        /* \"#utility.yul\":2363:2428   */\n      tag_58\n        /* \"#utility.yul\":2421:2427   */\n      dup2\n        /* \"#utility.yul\":2416:2419   */\n      dup6\n        /* \"#utility.yul\":2409:2413   */\n      0x20\n        /* \"#utility.yul\":2402:2407   */\n      dup7\n        /* \"#utility.yul\":2398:2414   */\n      add\n        /* \"#utility.yul\":2363:2428   */\n      tag_31\n      jump\t// in\n    tag_58:\n        /* \"#utility.yul\":2453:2482   */\n      tag_59\n        /* \"#utility.yul\":2475:2481   */\n      dup2\n        /* \"#utility.yul\":2453:2482   */\n      tag_26\n      jump\t// in\n    tag_59:\n        /* \"#utility.yul\":2448:2451   */\n      dup5\n        /* \"#utility.yul\":2444:2483   */\n      add\n        /* \"#utility.yul\":2437:2483   */\n      swap2\n      pop\n        /* \"#utility.yul\":2204:2489   */\n      pop\n        /* \"#utility.yul\":2112:2489   */\n      swap3\n      swap2\n      pop\n      pop\n      jump\t// out\n        /* \"#utility.yul\":2495:2808   */\n    tag_22:\n        /* \"#utility.yul\":2608:2612   */\n      0x00\n        /* \"#utility.yul\":2646:2648   */\n      0x20\n        /* \"#utility.yul\":2635:2644   */\n      dup3\n        /* \"#utility.yul\":2631:2649   */\n      add\n        /* \"#utility.yul\":2623:2649   */\n      swap1\n      pop\n        /* \"#utility.yul\":2695:2704   */\n      dup2\n        /* \"#utility.yul\":2689:2693   */\n      dup2\n        /* \"#utility.yul\":2685:2705   */\n      sub\n        /* \"#utility.yul\":2681:2682   */\n      0x00\n        /* \"#utility.yul\":2670:2679   */\n      dup4\n        /* \"#utility.yul\":2666:2683   */\n      add\n        /* \"#utility.yul\":2659:2706   */\n      mstore\n        /* \"#utility.yul\":2723:2801   */\n      tag_61\n        /* \"#utility.yul\":2796:2800   */\n      dup2\n        /* \"#utility.yul\":2787:2793   */\n      dup5\n        /* \"#utility.yul\":2723:2801   */\n      tag_32\n      jump\t// in\n    tag_61:\n        /* \"#utility.yul\":2715:2801   */\n      swap1\n      pop\n        /* \"#utility.yul\":2495:2808   */\n      swap3\n      swap2\n      pop\n      pop\n      jump\t// out\n    stop\n\n    sub_0: assembly {\n            /* \"contracts/exampleTryCatch.sol\":60:172  contract WillThrow {... */\n          mstore(0x40, 0x80)\n          callvalue\n          dup1\n          iszero\n          tag_1\n          jumpi\n          revert(0x00, 0x00)\n        tag_1:\n          pop\n          dataSize(sub_0)\n          dup1\n          dataOffset(sub_0)\n          0x00\n          codecopy\n          0x00\n          return\n        stop\n\n        sub_0: assembly {\n                /* \"contracts/exampleTryCatch.sol\":60:172  contract WillThrow {... */\n              mstore(0x40, 0x80)\n              callvalue\n              dup1\n              iszero\n              tag_1\n              jumpi\n              revert(0x00, 0x00)\n            tag_1:\n              pop\n              jumpi(tag_2, lt(calldatasize, 0x04))\n              shr(0xe0, calldataload(0x00))\n              dup1\n              0x39c117a4\n              eq\n              tag_3\n              jumpi\n            tag_2:\n              revert(0x00, 0x00)\n                /* \"contracts/exampleTryCatch.sol\":86:169  function aFunction() public pure {... */\n            tag_3:\n              tag_4\n              tag_5\n              jump\t// in\n            tag_4:\n              stop\n            tag_5:\n                /* \"contracts/exampleTryCatch.sol\":138:143  false */\n              0x00\n                /* \"contracts/exampleTryCatch.sol\":130:161  require(false, \"Error message\") */\n              tag_7\n              jumpi\n              mload(0x40)\n              0x08c379a000000000000000000000000000000000000000000000000000000000\n              dup2\n              mstore\n              0x04\n              add\n              tag_8\n              swap1\n              tag_9\n              jump\t// in\n            tag_8:\n              mload(0x40)\n              dup1\n              swap2\n              sub\n              swap1\n              revert\n            tag_7:\n                /* \"contracts/exampleTryCatch.sol\":86:169  function aFunction() public pure {... */\n              jump\t// out\n                /* \"#utility.yul\":7:176   */\n            tag_10:\n                /* \"#utility.yul\":91:102   */\n              0x00\n                /* \"#utility.yul\":125:131   */\n              dup3\n                /* \"#utility.yul\":120:123   */\n              dup3\n                /* \"#utility.yul\":113:132   */\n              mstore\n                /* \"#utility.yul\":165:169   */\n              0x20\n                /* \"#utility.yul\":160:163   */\n              dup3\n                /* \"#utility.yul\":156:170   */\n              add\n                /* \"#utility.yul\":141:170   */\n              swap1\n              pop\n                /* \"#utility.yul\":7:176   */\n              swap3\n              swap2\n              pop\n              pop\n              jump\t// out\n                /* \"#utility.yul\":182:345   */\n            tag_11:\n                /* \"#utility.yul\":322:337   */\n              0x4572726f72206d65737361676500000000000000000000000000000000000000\n                /* \"#utility.yul\":318:319   */\n              0x00\n                /* \"#utility.yul\":310:316   */\n              dup3\n                /* \"#utility.yul\":306:320   */\n              add\n                /* \"#utility.yul\":299:338   */\n              mstore\n                /* \"#utility.yul\":182:345   */\n              pop\n              jump\t// out\n                /* \"#utility.yul\":351:717   */\n            tag_12:\n                /* \"#utility.yul\":493:496   */\n              0x00\n                /* \"#utility.yul\":514:581   */\n              tag_17\n                /* \"#utility.yul\":578:580   */\n              0x0d\n                /* \"#utility.yul\":573:576   */\n              dup4\n                /* \"#utility.yul\":514:581   */\n              tag_10\n              jump\t// in\n            tag_17:\n                /* \"#utility.yul\":507:581   */\n              swap2\n              pop\n                /* \"#utility.yul\":590:683   */\n              tag_18\n                /* \"#utility.yul\":679:682   */\n              dup3\n                /* \"#utility.yul\":590:683   */\n              tag_11\n              jump\t// in\n            tag_18:\n                /* \"#utility.yul\":708:710   */\n              0x20\n                /* \"#utility.yul\":703:706   */\n              dup3\n                /* \"#utility.yul\":699:711   */\n              add\n                /* \"#utility.yul\":692:711   */\n              swap1\n              pop\n                /* \"#utility.yul\":351:717   */\n              swap2\n              swap1\n              pop\n              jump\t// out\n                /* \"#utility.yul\":723:1142   */\n            tag_9:\n                /* \"#utility.yul\":889:893   */\n              0x00\n                /* \"#utility.yul\":927:929   */\n              0x20\n                /* \"#utility.yul\":916:925   */\n              dup3\n                /* \"#utility.yul\":912:930   */\n              add\n                /* \"#utility.yul\":904:930   */\n              swap1\n              pop\n                /* \"#utility.yul\":976:985   */\n              dup2\n                /* \"#utility.yul\":970:974   */\n              dup2\n                /* \"#utility.yul\":966:986   */\n              sub\n                /* \"#utility.yul\":962:963   */\n              0x00\n                /* \"#utility.yul\":951:960   */\n              dup4\n                /* \"#utility.yul\":947:964   */\n              add\n                /* \"#utility.yul\":940:987   */\n              mstore\n                /* \"#utility.yul\":1004:1135   */\n              tag_20\n                /* \"#utility.yul\":1130:1134   */\n              dup2\n                /* \"#utility.yul\":1004:1135   */\n              tag_12\n              jump\t// in\n            tag_20:\n                /* \"#utility.yul\":996:1135   */\n              swap1\n              pop\n                /* \"#utility.yul\":723:1142   */\n              swap2\n              swap1\n              pop\n              jump\t// out\n\n            auxdata: 0xa2646970667358221220793beb2be67bbe40b47f0f09818397950cacefa58873850ce382a5e0e6ad1b2864736f6c634300081c0033\n        }\n    }\n\n    auxdata: 0xa2646970667358221220251c594c9ae8abe82a254d07f342182c26472f1cf306bf86f470d98fa0eb63dd64736f6c634300081c0033\n}\n",
				"bytecode": {
					"linkReferences": {},
					"object": "6080604052348015600e575f5ffd5b506104598061001c5f395ff3fe608060405234801561000f575f5ffd5b5060043610610029575f3560e01c80638b1885161461002d575b5f5ffd5b610035610037565b005b5f60405161004490610130565b604051809103905ff08015801561005d573d5f5f3e3d5ffd5b5090508073ffffffffffffffffffffffffffffffffffffffff166339c117a46040518163ffffffff1660e01b81526004015f6040518083038186803b1580156100a4575f5ffd5b505afa9250505080156100b5575060015b61012c576100c1610149565b806308c379a00361011d57506100d56101df565b806100e0575061011f565b7fdcbe72357183be3854887085e70fd914c4c1733a94106878f48e8ba069d8fabc8160405161010f91906102ce565b60405180910390a150610127565b505b3d5f5f3e3d5ffd5b61012d565b5b50565b610135806102ef83390190565b5f8160e01c9050919050565b5f60033d11156101655760045f5f3e6101625f5161013d565b90505b90565b5f604051905090565b5f601f19601f8301169050919050565b7f4e487b71000000000000000000000000000000000000000000000000000000005f52604160045260245ffd5b6101b782610171565b810181811067ffffffffffffffff821117156101d6576101d5610181565b5b80604052505050565b5f60443d1061026b576101f0610168565b60043d036004823e80513d602482011167ffffffffffffffff8211171561021857505061026b565b808201805167ffffffffffffffff811115610236575050505061026b565b80602083010160043d03850181111561025357505050505061026b565b610262826020018501866101ae565b82955050505050505b90565b5f81519050919050565b5f82825260208201905092915050565b8281835e5f83830152505050565b5f6102a08261026e565b6102aa8185610278565b93506102ba818560208601610288565b6102c381610171565b840191505092915050565b5f6020820190508181035f8301526102e68184610296565b90509291505056fe6080604052348015600e575f5ffd5b506101198061001c5f395ff3fe6080604052348015600e575f5ffd5b50600436106026575f3560e01c806339c117a414602a575b5f5ffd5b60306032565b005b5f606f576040517f08c379a000000000000000000000000000000000000000000000000000000000815260040160669060c7565b60405180910390fd5b565b5f82825260208201905092915050565b7f4572726f72206d657373616765000000000000000000000000000000000000005f82015250565b5f60b3600d836071565b915060bc826081565b602082019050919050565b5f6020820190508181035f83015260dc8160a9565b905091905056fea2646970667358221220793beb2be67bbe40b47f0f09818397950cacefa58873850ce382a5e0e6ad1b2864736f6c634300081c0033a2646970667358221220251c594c9ae8abe82a254d07f342182c26472f1cf306bf86f470d98fa0eb63dd64736f6c634300081c0033",
					"opcodes": "PUSH1 0x80 PUSH1 0x40 MSTORE CALLVALUE DUP1 ISZERO PUSH1 0xE JUMPI PUSH0 PUSH0 REVERT JUMPDEST POP PUSH2 0x459 DUP1 PUSH2 0x1C PUSH0 CODECOPY PUSH0 RETURN INVALID PUSH1 0x80 PUSH1 0x40 MSTORE CALLVALUE DUP1 ISZERO PUSH2 0xF JUMPI PUSH0 PUSH0 REVERT JUMPDEST POP PUSH1 0x4 CALLDATASIZE LT PUSH2 0x29 JUMPI PUSH0 CALLDATALOAD PUSH1 0xE0 SHR DUP1 PUSH4 0x8B188516 EQ PUSH2 0x2D JUMPI JUMPDEST PUSH0 PUSH0 REVERT JUMPDEST PUSH2 0x35 PUSH2 0x37 JUMP JUMPDEST STOP JUMPDEST PUSH0 PUSH1 0x40 MLOAD PUSH2 0x44 SWAP1 PUSH2 0x130 JUMP JUMPDEST PUSH1 0x40 MLOAD DUP1 SWAP2 SUB SWAP1 PUSH0 CREATE DUP1 ISZERO DUP1 ISZERO PUSH2 0x5D JUMPI RETURNDATASIZE PUSH0 PUSH0 RETURNDATACOPY RETURNDATASIZE PUSH0 REVERT JUMPDEST POP SWAP1 POP DUP1 PUSH20 0xFFFFFFFFFFFFFFFFFFFFFFFFFFFFFFFFFFFFFFFF AND PUSH4 0x39C117A4 PUSH1 0x40 MLOAD DUP2 PUSH4 0xFFFFFFFF AND PUSH1 0xE0 SHL DUP2 MSTORE PUSH1 0x4 ADD PUSH0 PUSH1 0x40 MLOAD DUP1 DUP4 SUB DUP2 DUP7 DUP1 EXTCODESIZE ISZERO DUP1 ISZERO PUSH2 0xA4 JUMPI PUSH0 PUSH0 REVERT JUMPDEST POP GAS STATICCALL SWAP3 POP POP POP DUP1 ISZERO PUSH2 0xB5 JUMPI POP PUSH1 0x1 JUMPDEST PUSH2 0x12C JUMPI PUSH2 0xC1 PUSH2 0x149 JUMP JUMPDEST DUP1 PUSH4 0x8C379A0 SUB PUSH2 0x11D JUMPI POP PUSH2 0xD5 PUSH2 0x1DF JUMP JUMPDEST DUP1 PUSH2 0xE0 JUMPI POP PUSH2 0x11F JUMP JUMPDEST PUSH32 0xDCBE72357183BE3854887085E70FD914C4C1733A94106878F48E8BA069D8FABC DUP2 PUSH1 0x40 MLOAD PUSH2 0x10F SWAP2 SWAP1 PUSH2 0x2CE JUMP JUMPDEST PUSH1 0x40 MLOAD DUP1 SWAP2 SUB SWAP1 LOG1 POP PUSH2 0x127 JUMP JUMPDEST POP JUMPDEST RETURNDATASIZE PUSH0 PUSH0 RETURNDATACOPY RETURNDATASIZE PUSH0 REVERT JUMPDEST PUSH2 0x12D JUMP JUMPDEST JUMPDEST POP JUMP JUMPDEST PUSH2 0x135 DUP1 PUSH2 0x2EF DUP4 CODECOPY ADD SWAP1 JUMP JUMPDEST PUSH0 DUP2 PUSH1 0xE0 SHR SWAP1 POP SWAP2 SWAP1 POP JUMP JUMPDEST PUSH0 PUSH1 0x3 RETURNDATASIZE GT ISZERO PUSH2 0x165 JUMPI PUSH1 0x4 PUSH0 PUSH0 RETURNDATACOPY PUSH2 0x162 PUSH0 MLOAD PUSH2 0x13D JUMP JUMPDEST SWAP1 POP JUMPDEST SWAP1 JUMP JUMPDEST PUSH0 PUSH1 0x40 MLOAD SWAP1 POP SWAP1 JUMP JUMPDEST PUSH0 PUSH1 0x1F NOT PUSH1 0x1F DUP4 ADD AND SWAP1 POP SWAP2 SWAP1 POP JUMP JUMPDEST PUSH32 0x4E487B7100000000000000000000000000000000000000000000000000000000 PUSH0 MSTORE PUSH1 0x41 PUSH1 0x4 MSTORE PUSH1 0x24 PUSH0 REVERT JUMPDEST PUSH2 0x1B7 DUP3 PUSH2 0x171 JUMP JUMPDEST DUP2 ADD DUP2 DUP2 LT PUSH8 0xFFFFFFFFFFFFFFFF DUP3 GT OR ISZERO PUSH2 0x1D6 JUMPI PUSH2 0x1D5 PUSH2 0x181 JUMP JUMPDEST JUMPDEST DUP1 PUSH1 0x40 MSTORE POP POP POP JUMP JUMPDEST PUSH0 PUSH1 0x44 RETURNDATASIZE LT PUSH2 0x26B JUMPI PUSH2 0x1F0 PUSH2 0x168 JUMP JUMPDEST PUSH1 0x4 RETURNDATASIZE SUB PUSH1 0x4 DUP3 RETURNDATACOPY DUP1 MLOAD RETURNDATASIZE PUSH1 0x24 DUP3 ADD GT PUSH8 0xFFFFFFFFFFFFFFFF DUP3 GT OR ISZERO PUSH2 0x218 JUMPI POP POP PUSH2 0x26B JUMP JUMPDEST DUP1 DUP3 ADD DUP1 MLOAD PUSH8 0xFFFFFFFFFFFFFFFF DUP2 GT ISZERO PUSH2 0x236 JUMPI POP POP POP POP PUSH2 0x26B JUMP JUMPDEST DUP1 PUSH1 0x20 DUP4 ADD ADD PUSH1 0x4 RETURNDATASIZE SUB DUP6 ADD DUP2 GT ISZERO PUSH2 0x253 JUMPI POP POP POP POP POP PUSH2 0x26B JUMP JUMPDEST PUSH2 0x262 DUP3 PUSH1 0x20 ADD DUP6 ADD DUP7 PUSH2 0x1AE JUMP JUMPDEST DUP3 SWAP6 POP POP POP POP POP POP JUMPDEST SWAP1 JUMP JUMPDEST PUSH0 DUP2 MLOAD SWAP1 POP SWAP2 SWAP1 POP JUMP JUMPDEST PUSH0 DUP3 DUP3 MSTORE PUSH1 0x20 DUP3 ADD SWAP1 POP SWAP3 SWAP2 POP POP JUMP JUMPDEST DUP3 DUP2 DUP4 MCOPY PUSH0 DUP4 DUP4 ADD MSTORE POP POP POP JUMP JUMPDEST PUSH0 PUSH2 0x2A0 DUP3 PUSH2 0x26E JUMP JUMPDEST PUSH2 0x2AA DUP2 DUP6 PUSH2 0x278 JUMP JUMPDEST SWAP4 POP PUSH2 0x2BA DUP2 DUP6 PUSH1 0x20 DUP7 ADD PUSH2 0x288 JUMP JUMPDEST PUSH2 0x2C3 DUP2 PUSH2 0x171 JUMP JUMPDEST DUP5 ADD SWAP2 POP POP SWAP3 SWAP2 POP POP JUMP JUMPDEST PUSH0 PUSH1 0x20 DUP3 ADD SWAP1 POP DUP2 DUP2 SUB PUSH0 DUP4 ADD MSTORE PUSH2 0x2E6 DUP2 DUP5 PUSH2 0x296 JUMP JUMPDEST SWAP1 POP SWAP3 SWAP2 POP POP JUMP INVALID PUSH1 0x80 PUSH1 0x40 MSTORE CALLVALUE DUP1 ISZERO PUSH1 0xE JUMPI PUSH0 PUSH0 REVERT JUMPDEST POP PUSH2 0x119 DUP1 PUSH2 0x1C PUSH0 CODECOPY PUSH0 RETURN INVALID PUSH1 0x80 PUSH1 0x40 MSTORE CALLVALUE DUP1 ISZERO PUSH1 0xE JUMPI PUSH0 PUSH0 REVERT JUMPDEST POP PUSH1 0x4 CALLDATASIZE LT PUSH1 0x26 JUMPI PUSH0 CALLDATALOAD PUSH1 0xE0 SHR DUP1 PUSH4 0x39C117A4 EQ PUSH1 0x2A JUMPI JUMPDEST PUSH0 PUSH0 REVERT JUMPDEST PUSH1 0x30 PUSH1 0x32 JUMP JUMPDEST STOP JUMPDEST PUSH0 PUSH1 0x6F JUMPI PUSH1 0x40 MLOAD PUSH32 0x8C379A000000000000000000000000000000000000000000000000000000000 DUP2 MSTORE PUSH1 0x4 ADD PUSH1 0x66 SWAP1 PUSH1 0xC7 JUMP JUMPDEST PUSH1 0x40 MLOAD DUP1 SWAP2 SUB SWAP1 REVERT JUMPDEST JUMP JUMPDEST PUSH0 DUP3 DUP3 MSTORE PUSH1 0x20 DUP3 ADD SWAP1 POP SWAP3 SWAP2 POP POP JUMP JUMPDEST PUSH32 0x4572726F72206D65737361676500000000000000000000000000000000000000 PUSH0 DUP3 ADD MSTORE POP JUMP JUMPDEST PUSH0 PUSH1 0xB3 PUSH1 0xD DUP4 PUSH1 0x71 JUMP JUMPDEST SWAP2 POP PUSH1 0xBC DUP3 PUSH1 0x81 JUMP JUMPDEST PUSH1 0x20 DUP3 ADD SWAP1 POP SWAP2 SWAP1 POP JUMP JUMPDEST PUSH0 PUSH1 0x20 DUP3 ADD SWAP1 POP DUP2 DUP2 SUB PUSH0 DUP4 ADD MSTORE PUSH1 0xDC DUP2 PUSH1 0xA9 JUMP JUMPDEST SWAP1 POP SWAP2 SWAP1 POP JUMP INVALID LOG2 PUSH5 0x6970667358 0x22 SLT KECCAK256 PUSH26 0x3BEB2BE67BBE40B47F0F09818397950CACEFA58873850CE382A5 0xE0 0xE6 0xAD SHL 0x28 PUSH5 0x736F6C6343 STOP ADDMOD SHR STOP CALLER LOG2 PUSH5 0x6970667358 0x22 SLT KECCAK256 0x25 SHR MSIZE 0x4C SWAP11 0xE8 0xAB 0xE8 0x2A 0x25 0x4D SMOD RETURN TIMESTAMP XOR 0x2C 0x26 SELFBALANCE 0x2F SHR RETURN MOD 0xBF DUP7 DELEGATECALL PUSH17 0xD98FA0EB63DD64736F6C634300081C0033 "
				},
				"gasEstimates": {
					"creation": {
						"codeDepositCost": "222600",
						"executionCost": "261",
						"totalCost": "222861"
					},
					"external": {
						"catchError()": "infinite"
					}
				},
				"methodIdentifiers": {
					"catchError()": "8b188516"
				}
			},
			"storageLayout": {
				"storage": [],
				"types": null
			},
			"userdoc": {
				"kind": "user",
				"methods": {},
				"version": 1
			}
		}
	}
}